:020000040800F2
:100000001006002001010008050F0008430E00083B
:10001000010F0008290900085F180008000000000F
:10002000000000000000000000000000B9110008FE
:10003000B90B0008000000008D0F0008CD12000869
:100040001B0100081B0100081B0100081B01000820
:100050001B0100081B010008BB0B0008D30B0008A4
:10006000EB0B0008030C00081B0100081B01000833
:100070001B0100081B0100081B0100081B010008F0
:100080001B0100081B0100081B0100081B010008E0
:100090001B0100081B0100081B0100081B010008D0
:1000A0001B0100081B0100081B0100081B010008C0
:1000B000311300085D1300081B0100081B01000834
:1000C0001B0100081B0100081B0100081B010008A0
:1000D0001B0100083D1600081B0100081B01000859
:1000E0001B0100081B0100081B010008DFF80CD0F1
:1000F00000F0F8FB00480047B92600081006002071
:100100000648804706480047FEE7FEE7FEE7FEE7B1
:10011000FEE7FEE7FEE7FEE7FEE7FEE7D112000896
:10012000ED000008D2B201E000F8012B491EFBD21D
:1001300070470022F6E710B513460A4604461946F2
:10014000FFF7F0FF204610BDF0B480EA0102D40FA3
:100150004200B2EB410F02D20246084611464A0065
:1001600042D0C30DDDB2C1F3C752AD1A202D35DA2E
:10017000C1F3160141F4000204B15242C5F1200658
:1001800002FA06F12A411044B3EBD05F23D0C4B188
:10019000012DA0EBC35009DCF0BC4FF0004202EA95
:1001A000C352DBB200F5000000F089BA400000F154
:1001B000807000EBC350A0F1807040EAD17049001C
:1001C00009E0490841EAC071A0EBC35000F5000006
:1001D000400800EBC350F0BC00F068BA6142012255
:1001E00002EB4101001BF6E7F0BC704781F00041D3
:1001F000AAE780F00040A7E780EA010210B502F00C
:100200000043400022D04A001FD0010E01EB1261D2
:10021000C0F35600C2F3560240F4000042F400025C
:10022000A0FB022000047F39140400D0401C50EAD7
:10023000124001D44000491EC2B20C0604EBD0109B
:10024000401C4008802A02D003E0002010BD20F0AE
:100250000100002900DA0020184310BD30B480EA04
:10026000010202F0004530F0004221F0004013D0BE
:1002700090B1C30DD40DC2F31601C0F31600E41AF9
:1002800041F4000140F400027D34914201D3641C2A
:1002900000E04900002C02DA30BC002070474FF427
:1002A00000000023914201D3891A034340084FEA1A
:1002B0004101F7D151B1914202D14FF0004105E027
:1002C00002D24FF0010101E06FF0010103EBC450D5
:1002D000284430BC00F0EAB92DE9FE4F804681EA9F
:1002E0000300C00F0C46009021F0004123F00045B0
:1002F000B8EB0200A94105D24046214690461C4673
:100300000B46024623F00040104347D0270DC7F3A9
:100310000A00C3F30A510290401A019040286BDA98
:10032000C3F3130040F4801B0098924620B10023D1
:10033000D2EB030A63EB0B0B01985946C0F1400264
:10034000504600F092F906460D4650465946019A2D
:1003500000F09AF910EB08006141002487EA11527D
:1003600084EAE7731A4340D0009A62B3019A012AE3
:100370004FEA075215DC001B61EB02014FF000420F
:1003800002EA0752CDE90042001C41F580113246D5
:100390002B4600F0D1F903B0BDE8F08F404621466E
:1003A000F9E7001B61EB0201001C41F58013001806
:1003B0005B412018A2F5001747EB030140EAD57016
:1003C000B6196D4111E06D084FEA360645EAC07571
:1003D0004FEA0752001B61EB0201001C41F580113E
:1003E00049084FEA30000019514132462B4603B00C
:1003F000BDE8F04F00F091B90098012240000023C1
:10040000D0EB020263EBE073009821464FEAE07400
:10041000B8EB000061EB0401E9E783F000435BE720
:1004200081F0004158E72DE9FE4F81EA030404F012
:10043000004421F0004100944FF0000B23F00043F2
:1004400050EA01045ED052EA03045BD0C3F30A54BD
:10045000C1F30A552C44A4F2F3340194A0FB0254D6
:10046000C1F3130141F48011C3F3130343F4801368
:1004700001FB024400FB034E840A970A44EA8154BC
:1004800047EA8357A4FB076802958D0A05FB078599
:100490004FEA932C04FB0C542705029D4FEA0658A3
:1004A00047EA1637B5EB08056EEB070C870E920E80
:1004B00047EA811742EA8312A7FB0201B6EB0B0160
:1004C00064EB00042B0D43EA0C335E1844EB1C5024
:1004D000DA465146E7FB0201C5F313044FEA0B333A
:1004E00043EA14534FEA0432019C43EA0603A4F1A1
:1004F0000C040294009CCDE900B400F01DF903B097
:10050000BDE8F08F00200146F9E7C10F80EAE070F6
:100510000844CA079623002100F0D1B89623002290
:10052000114600F0CCB800F0004230F000400AD094
:10053000C10D01F56071C0F3160042EA0151C20815
:1005400040071143704700200146704730B5041E34
:1005500071F1000404DB4FF00044404264EB010100
:10056000141E73F1000405DB1C464FF00043524299
:1005700063EB0403994208BF904230BD01F0004391
:1005800030B421F0004150EA010206D00A0DA2F574
:100590006072C1F31301002A02DC30BC00207047F6
:1005A000440F44EAC104C100E01830BC00EBC25063
:1005B00000F07CB8002801DBC0F10040002901DB1D
:1005C000C1F1004181427047002801DBC0F10040C9
:1005D000002901DBC1F100418842704730B50B466C
:1005E000014600202022012409E021FA02F59D4263
:1005F00005D303FA02F5491B04FA02F52844151E37
:10060000A2F10102F1DC30BD2DE9F05F05460020CA
:1006100092469B4688460646814640241BE0284673
:1006200041464746224600F06FF953465A46C01AE3
:10063000914110D311461846224600F016F82D1AA3
:1006400067EB01084F4622460120002100F00DF81B
:1006500017EB00094E41201EA4F10104DFDC4846DF
:1006600031462A464346BDE8F09F202A04DB203A63
:1006700000FA02F1002070479140C2F1200320FAF5
:1006800003F3194390407047202A06DBCB17203A2A
:1006900041FA02F043EAE07306E041FA02F3D04087
:1006A000C2F1200291400843194670470029A8BFB3
:1006B0007047401C490008BF20F00100704710B48B
:1006C000B0FA80FC00FA0CF050EA010404BF10BC40
:1006D000704749B1CCF1200421FA04F411FA0CF16D
:1006E00018BF012121430843A3EB0C01CB1D4FEAA6
:1006F00000614FEA102042BF002010BC704700EBA1
:10070000C35010440029A4BF10BC7047401C4900CE
:1007100008BF20F0010010BC704710B5141E73F123
:10072000000408DA401C41F1000192185B411A43B1
:1007300001D120F0010010BD2DE9F04D92469B46FD
:1007400011B1B1FA81F202E0B0FA80F220329046A3
:10075000FFF78BFF04460F4640EA0A0041EA0B010F
:1007600053465A46084313D0114653EA010019D0A4
:10077000C8F14002504600F0C7F805460E46504604
:1007800059464246FFF771FF084305D0012004E0B7
:1007900020463946BDE8F08D0020054346EAE07664
:1007A0002C4337430A986305E40AA0EB08000022B3
:1007B000FD0A44EA47540A3002D500200146E9E721
:1007C000010510196941DDE9084500196941BDE8D5
:1007D000F04DA2E72DE9F04D81EA030404F0004B4F
:1007E00021F0004514464FF0000A23F0004150EA82
:1007F000050220D054EA01021DD0C5F30A57024673
:10080000C5F31303C1F31300C1F30A5640F4801576
:1008100043F48013A7EB0608101BD64608F2FD38F8
:1008200073EB050002D308F1010801E092185B4167
:10083000B8F1000F03DA00200146BDE8F08D00207A
:100840004FF48011064684460EE0171B73EB050734
:1008500005D3121B63EB050306434CEA010C490860
:100860004FEA300092185B4150EA0107EDD152EA9D
:10087000030012D082EA040083EA0501084305D090
:10088000101BAB4106D20122002306E000224FF0EC
:10089000004302E06FF0010253101AEB06004CEB2C
:1008A000085110EB0A0041EB0B01BDE8F04DFFF7DA
:1008B00034BFC1F30A52C1F3130140F2FF3341F4D4
:1008C00080119A4202DA00200146704740F2334319
:1008D0009A42A2F2334202DC524200F015B8FFF70E
:1008E000C4BE0000064C074D06E0E06840F001037E
:1008F00094E8070098471034AC42F6D3FFF7FAFBB0
:100900003C2C00085C2C0008202A04DB203A21FA49
:1009100002F00021704721FA02F3D040C2F1200218
:10092000914008431946704700BFFEE710B5002408
:100930001548006820F470401349086008460068B4
:1009400040F08000086004E0601CC4B2012001F0A7
:10095000EDFC0E48006808B1C82CF5DBC82C01DBA3
:10096000012010BD002404E0601CC4B2012001F08D
:10097000DDFC0648006808B9F02CF5DBF02C01DB43
:100980000120EEE70020ECE70408014010012142BD
:100990002DE9F84F00BF00F0C9F800F0A5F8FFF707
:1009A000C5FFCC2000F0CEF8BE2000F0CBF800F060
:1009B00089F8814600F086F80646072E07DDF043E9
:1009C000C6B26FEA090000F0FF09002700E0012726
:1009D000B0464FEA08200FFA80F808EB09000FFA3A
:1009E00080F84046FFF791FD0090FFF79CFD82469E
:1009F0000022094BFFF717FD04460D463FB10022C8
:100A0000064B20462946FFF708FDBDE8F88F85F024
:100A100000412046F9E700000000B03F00001C4004
:100A200008B50121042000F03DFB1020ADF80000C6
:100A30008DF8030003208DF802006946054800F098
:100A400071F90121034800F0FAF900F04DF8FFF7C1
:100A50006DFF08BD0008014010B51748006820F47C
:100A60007040154908600846006840F03000086092
:100A7000002012490860022001F058FC01201049B2
:100A8000C1F890010C48006820F470400A490860E1
:100A90000846006840F0800008600C2001F046FC29
:100AA00006488038006808B1012400E000243220A4
:100AB00001F03CFC204610BD040801409001214299
:100AC0000000214270B50026012508E0FFF7C4FFB1
:100AD0000446E00140EA6600C6B2681CC5B2082DB3
:100AE000F4DD304670BD000010B50D48006820F4FC
:100AF00070400B4908600846006840F0300008600C
:100B000000200849086040F2EE2001F00FFC0120AF
:100B10000549C1F890010F2001F008FC10BD00004C
:100B200004080140900121420000214210B5FFF766
:100B3000DBFFFFF7FBFECC2000F004F8442000F0C0
:100B400001F810BD70B504461848006820F47040E4
:100B5000164908600846006840F03000086001252A
:100B600020E004F0010664106EB100201049086016
:100B7000022001F0DBFB01200E49C1F890013C206E
:100B800001F0D4FB0CE00020094908603C2001F092
:100B9000CDFB01200749C1F89001022001F0C6FBFE
:100BA000681CC5B2082DDCDD70BD000004080140E2
:100BB0009001214200002142704710B5012000F051
:100BC00033F828B1002001F0E5FE012000F026F8FE
:100BD00010BD10B5022000F027F828B1012001F067
:100BE000D9FE022000F01AF810BD10B5042000F064
:100BF0001BF828B1022001F0CDFE042000F00EF811
:100C000010BD10B5082000F00FF828B1032001F046
:100C1000C1FE082000F002F810BD00000149086084
:100C20007047000014040140014600200022074BD9
:100C30001B6803EA0102054B14331B680B4013B118
:100C40000AB1012000E000207047000000040140CC
:100C5000002123498279002A3AD00A4612680368A3
:100C60009A430B461A600A1D126803689A430B1DCB
:100C70001A60027911440A6803681A430A60184A24
:100C80000832126803689A43154B08331A601A1D1C
:100C9000126803689A43124B0C331A604279102A87
:100CA0000ED11A1F126803681A430D4B08331A60DD
:100CB0001A1D126803681A43094B0C331A600DE0C1
:100CC0000749427911440A6803681A430A6005E03B
:100CD000027911440A6803689A430A607047000069
:100CE0000004014030B500228B071C0F0F2303FACC
:100CF00004F20B4B8C1053F824309343084C8D10A6
:100D000044F8253023468C1053F824308C07240FE8
:100D100000FA04F42343024C8D1044F8253030BD12
:100D2000080001402DE9F041024600250026002080
:100D300000230024002791F803C00CF00F0591F860
:100D400003C00CF0100CBCF1000F03D091F802C0EE
:100D50004CEA050591F800C0BCF1000F31D01468D1
:100D600000202BE04FF0010C0CFA00F3B1F800C0AA
:100D70000CEA03069E4220D183004FF00F0C0CFAC0
:100D800003F7BC4305FA03FC4CEA040491F803C0E2
:100D9000BCF1280F06D14FF0010C0CFA00FCC2F890
:100DA00014C00AE091F803C0BCF1480F05D14FF020
:100DB000010C0CFA00FCC2F810C0401C0828D1D36A
:100DC0001460B1F800C0BCF1FF0F34DD546800209E
:100DD0002EE000F1080C4FF0010808FA0CF3B1F80E
:100DE00000C00CEA03069E4221D183004FF00F0C95
:100DF0000CFA03F7BC4305FA03FC4CEA040491F82F
:100E000003C0BCF1280F05D100F1080C08FA0CF85A
:100E1000C2F8148091F803C0BCF1480F07D100F16B
:100E2000080C4FF0010808FA0CF8C2F81080401CBA
:100E30000828CED35460BDE8F0814161704701615C
:100E4000704700BFFEE7000010B50446402114487B
:100E5000FFF7F3FF20211248FFF7EFFF052001F015
:100E600049FA80210E48FFF7EAFF052001F042FA17
:100E70004FF47F4000EA0420094910310860E04344
:100E80004FF47F4101EA0020054914310860052034
:100E900001F030FA80210248FFF7CFFF10BD0000BB
:100EA000000C014010B5044640211448FFF7C5FF6F
:100EB00020211248FFF7C3FF052001F01BFA802113
:100EC0000E48FFF7BCFF052001F014FA4FF47F40F5
:100ED00000EA0420094910310860E0434FF47F41E3
:100EE00001EA0020054914310860052001F002FAEA
:100EF00080210248FFF7A1FF10BD0000000C014057
:100F000000BFFEE77047000070B5002100230F22EC
:100F1000C47804B3154C246804F4E064C4F5E064B8
:100F2000210AC1F10403CA40447804FA03F1847829
:100F30001440214309010E4C0678A155047804F0B1
:100F40001F050124AC4005786D11AD0005F1E025C9
:100F5000C5F8004109E0047804F01F050124AC4005
:100F6000044D0678761145F8264070BD0CED00E082
:100F700000E400E080E100E002490143024A116020
:100F8000704700000000FA050CED00E0704708B55E
:100F90004FF4A060FFF7F0FF25208DF8000003203C
:100FA0008DF8010000208DF8020001208DF803006B
:100FB0006846FFF7A9FF1C208DF8000002208DF87D
:100FC000010000208DF8020001208DF80300684622
:100FD000FFF79AFF1D208DF8000001208DF8010019
:100FE00000208DF8020001208DF803006846FFF70D
:100FF0008BFF06208DF8000000208DF801008DF891
:10100000020001208DF803006846FFF77DFF0720EE
:101010008DF8000000208DF801008DF802000120FD
:101020008DF803006846FFF76FFF08208DF8000079
:1010300000208DF801008DF8020001208DF80300DA
:101040006846FFF761FF09208DF8000000208DF849
:1010500001008DF8020001208DF803006846FFF7BB
:1010600053FF08BD29B1064AD2690243044BDA6135
:1010700004E0034AD2698243014BDA617047000001
:101080000010024029B1064A12690243044B1A615A
:1010900004E0034A12698243014B1A617047000061
:1010A0000010024029B1064A92690243044B9A613A
:1010B00004E0034A92698243014B9A617047000041
:1010C0000010024029B1064AD2680243044BDA609C
:1010D00004E0034AD2688243014BDA6070470000A3
:1010E0000010024030B500210022002400232D4DC5
:1010F0006D6805F00C0121B1042905D0082923D120
:1011000005E0294D056022E0274D05601FE0254DD3
:101110006D6805F47012234D6D6805F48034022566
:1011200005EB92421CB9214D554305600BE01D4D66
:101130006D6805F400351DB11C4D5543056002E096
:10114000194D5543056002E0174D056000BF00BF13
:10115000144D6D6805F0F0010909154D6B5C0568CB
:10116000DD4045600F4D6D6805F4E061090A104DE2
:101170006B5C4568DD4085600A4D6D6805F4605123
:10118000C90A0B4D6B5C4568DD40C560054D6D6857
:1011900005F44041890B074D6B5CC568B5FBF3F561
:1011A000056130BD0010024000127A0000093D00C8
:1011B0000000002010000020704710B500F002F879
:1011C00010BD00000CB5002001900090334800686D
:1011D00040F480303149086000BF3048006800F4B6
:1011E000003000900198401C0190009818B90198B7
:1011F000B0F5A06FF1D12948006800F4003010B1BB
:101200000120009001E0002000900098012843D1C7
:101210002348006840F01000214908600846006833
:1012200020F0030008600846006840F002000860F3
:101230001A484068194948600846406848600846AE
:10124000406840F4806048600846406820F47C10A4
:1012500048600846406840F4E81048600846006866
:1012600040F08070086000BF0C48006800F000701B
:101270000028F9D00948406820F003000749486079
:101280000846406840F00200486000BF03484068DC
:1012900000F00C000828F9D10CBD0000001002403D
:1012A00000200240042808D14FF0E021096941F0F4
:1012B00004014FF0E022116107E04FF0E0210969DD
:1012C00021F004014FF0E0221161704770470000E7
:1012D00010B51348006840F0010011490860084645
:1012E0004068104908400E494860084600680E49A9
:1012F00008400B4908600846006820F48020086018
:101300000846406820F4FE0048604FF41F008860E3
:10131000FFF753FF4FF000600449086010BD000064
:10132000001002400000FFF8FFFFF6FE08ED00E0AD
:1013300010B54FF08040008A00F0010058B101F074
:101340007FFB0548C069401C0349C8614FF6FE7029
:101350004FF08041088210BD4000002010B50648C3
:10136000008800F0010028B101F0D0F94FF6FE70BE
:101370000149088010BD000010040040CA430282E9
:10138000704721B1028842F00102028004E0028825
:101390004FF6FE731A4002807047000010B50446F5
:1013A0006848844208D10121C014FFF78BFE002158
:1013B000E014FFF787FEC4E0B4F1804F08D10121AB
:1013C0000846FFF75FFE00210120FFF75BFEB8E053
:1013D0005D48844208D101210220FFF753FE00211D
:1013E0000220FFF74FFEACE05848844208D10121AB
:1013F0000420FFF747FE00210420FFF743FEA0E092
:101400005348844208D101210820FFF73BFE002108
:101410000820FFF737FE94E04E48844208D10121AE
:101420001020FFF72FFE00211020FFF72BFE88E091
:101430004948844208D101212020FFF723FE0021E2
:101440002020FFF71FFE7CE04448844208D10121A0
:101450004014FFF737FE00216014FFF733FE70E001
:101460003F48844209D10121C804FFF72BFE002127
:101470004FF40020FFF726FE63E03A48844209D18A
:1014800001210805FFF71EFE00214FF48010FFF731
:1014900019FE56E03448844209D101214805FFF77E
:1014A00011FE00214FF40010FFF70CFE49E02F4819
:1014B000844208D101214020FFF7E4FD00214020B3
:1014C000FFF7E0FD3DE02A48844208D10121802059
:1014D000FFF7D8FD00218020FFF7D4FD31E025483B
:1014E000844208D101218015FFF7CCFD0021A01511
:1014F000FFF7C8FD25E02048844209D101210804F6
:10150000FFF7E0FD00214FF48030FFF7DBFD18E02E
:101510001A48844209D101214804FFF7D3FD002174
:101520004FF40030FFF7CEFD0BE01548844208D1A0
:1015300001218804FFF7C6FD00214FF48020FFF74A
:10154000C1FD10BD002C0140000400400008004017
:10155000000C004000100040001400400034014026
:10156000004C014000500140005401400018004070
:10157000001C0040002000400040014000440140A9
:10158000004801401AB183890B43838102E08389BB
:101590008B43838170470000002202881D4B9842D4
:1015A0000ED01D4B98420BD0B0F1804F08D01B4B92
:1015B000984205D01A4B984202D01A4B984204D157
:1015C0004FF68F731A404B881A43174B984207D037
:1015D000164B984204D04FF6FF431A40CB881A436B
:1015E00002808B8883850B8803850A4B98420BD039
:1015F000094B984208D00E4B984205D00D4B9842AB
:1016000002D00D4B984201D10B7A038601238382CD
:1016100070470000002C01400034014000040040ED
:1016200000080040000C0040001000400014004082
:1016300000400140004401400048014010B540F224
:1016400025511D4800F04AF810B31B4800F002F97C
:10165000C4B21A48008800F40040C8B9174800888E
:1016600000F4804060B10A2C03D0002013490880A8
:1016700020E01248008840F400401049088019E03A
:101680000D2C06D10D48008840F480400B4908809D
:1016900010E00A480088C0F30D0009490C540748BF
:1016A0000088401C0549088008460088C72801DDDD
:1016B0000020088010BD0000003801401800002004
:1016C0004401002021B1828942F40052828104E069
:1016D00082894DF6FF731A408281704770B50246C9
:1016E000002400230025002040F66A16B14200D1F4
:1016F00000BFC1F3421501F01F03012606FA03F3F0
:10170000012D02D19689334006E0022D02D1168ABE
:10171000334001E0968A33400C12012606FA04F4A5
:101720001688344013B10CB1012000E0002070BDD8
:10173000F0B50346002400260025002040F66A1775
:10174000B94200D100BF1846C1F3421401F01F0690
:10175000012707FA06F5012C01D10C3004E0022C18
:1017600001D1103000E014301AB107682F43076030
:1017700002E00768AF430760F0BD00002DE9F047C5
:1017800086B005460E460024A24600BFA1460027AB
:10179000B08900B100BF2F462C8A4CF6FF70044080
:1017A000F08804432C82AC894EF6F3100440B088D4
:1017B00031890843718908430443AC81AC8A4FF6F0
:1017C000FF400440B0890443AC8201A8FFF78AFCC3
:1017D0001F48874202D1DDF810A001E0DDF80CA01F
:1017E000A88900F4004040B10AEBCA0000EB0A10DF
:1017F00031684900B0FBF1F807E00AEBCA0000EBE2
:101800000A1031688900B0FBF1F86420B8FBF0F0F1
:1018100004012009642101FB1089A88900F400401B
:1018200040B1322000EBC900B0FBF1F000F007003E
:10183000044308E0322000EB09106421B0FBF1F012
:1018400000F00F0004432C8106B0BDE8F0870000D3
:101850000038014001468888C0F30800704700BF87
:10186000FEE700000FB4084B10B504A902AA0398C4
:1018700000F0CEF8044602A9002000F060FC2046EB
:1018800010BC5DF814FB00003F21000802E008C80E
:10189000121F08C1002AFAD170477047002001E0EA
:1018A00001C1121F002AFBD1704700002DE9FF5F24
:1018B000DDE90220010DDDF838B0024318D044F60E
:1018C0001050A1F2FF3141430D140F98012820D090
:1018D000A5EB0B00401C5FEA000A4FF00004474EE6
:1018E000DFF81C91A046504616D5CAF1000728E043
:1018F0000F98012443A2012808D0002100980F9BD3
:10190000C0E90021C0E90243BDE8FF9F6FEA0B0177
:10191000F4E7CBF10000DEE7074612E0F80707D056
:101920002246334640464946FEF77DFD80468946BD
:101930002246334610461946FEF775FD04460E460C
:101940007F10002FEAD1DDE90201BAF1000F424613
:101950004B4602DAFEF767FD01E0FEF73BFF044667
:101960000E460022284BFEF7F1FD03D84FF0FF3062
:10197000014607E00022254B20463146FEF7ACFC2D
:10198000FEF797FF102409E0002C0ADB0A2200234F
:10199000FEF73AFE019B30321A55641E50EA0102EE
:1019A000F2D1641C019AC4F1110314440F9A012A64
:1019B00003D0012208430DD10AE0084304D00020DF
:1019C0004FF0110B0F9080E7A3EB0B056D1E0DE0A0
:1019D0005B4504DD4FF0000205F1010504E003DA88
:1019E0004FF00002A5F10105002AECD000980F99F4
:1019F000C0E90231C0E9004586E70000000024404C
:101A00000000F03F300000000000F0430000E03F25
:101A10002DE9FF4F95B09B468946064600250FE20B
:101A2000252877D100242746F84A0121059400E0B3
:101A3000044316F8013F203B01FA03F01042F7D1AE
:101A400030782A2811D06FF02F033078A0F13002BF
:101A5000092A16D8059A44F0020402EB820203EB2D
:101A600042021044761C0590EFE759F8042B0592CA
:101A7000002A03DA504244F40054059044F0020472
:101A8000761C30782E2816D116F8010F44F0040485
:101A90002A280DD06FF02F023078A0F13003092BE7
:101AA00009D807EB870302EB4303C718761CF3E75B
:101AB00059F8047B761C30786C280FD006DC4C2853
:101AC00017D068280DD06A2814D104E0742810D0EB
:101AD0007A280FD10DE044F400140AE044F4801495
:101AE00001E044F440147278824202D104F580147B
:101AF000761C761C307866280BD013DC582877D0FB
:101B000009DC002875D04528F6D04628F4D04728AF
:101B10001AD19DE118E0632835D0642879D0652872
:101B200012D195E1702873D008DC6728F1D06928BC
:101B30006FD06E280DD06F2806D1B5E073282CD059
:101B4000752875D0782874D05A46179990476D1C1F
:101B500075E1C4F30250022809D003280DD0D9F84A
:101B6000001004280DD00D6009F1040967E1D9F8CF
:101B70000010EA17C1E90052F6E7D9F800100D800D
:101B8000F2E70D70F0E719F8041B8DF80010002043
:101B90008DF80100EA46012003E059F804AB4FF04C
:101BA000FF3061074FF0000102D40DE008F10101A0
:101BB0008846B9420FDA8045F8DB1AF80810002988
:101BC000F4D108E008F1010188468142FADB1AF8F5
:101BD00008100029F6D105985B46A0EB08072146BE
:101BE0003846179A00F094FA284400EB080507E0FD
:101BF0004DE029E10DE01AF8010B5A46179990477C
:101C0000B8F10108F7D25B4621463846179A13E12E
:101C100042E00A220092C4F302524FF0000A022A64
:101C200008D059F804CB032A4FEAEC710AD00DE032
:101C300029E02AE009F1070121F00702F2E802C1D8
:101C4000914609E00FFA8CFC4FEAEC71042A03D1AB
:101C50004FFA8CFC4FEAEC71002907DA0A460021A2
:101C6000DCF1000C61EB02012D2202E0220504D51B
:101C70002B228DF80420012203E0E20701D020226C
:101C8000F7E7904659E00A2102E010220DE010210A
:101C90004FF0000A00910BE010224FF0000A44F0D0
:101CA00004040827009203E008224FF0000A009283
:101CB000C4F30252022A05D059F804CB0021032AAA
:101CC00008D009E009F1070121F00702F2E802C19A
:101CD000914605E01FFA8CFC042A01D10CF0FF0CA0
:101CE0004FF00008220728D5702806D0009B83F00B
:101CF000100353EA0A0305D00EE040228DF80420B9
:101D0000012208E05CEA010206D030228DF80420AE
:101D10008DF8050002229046009B83F0080353EAE9
:101D20000A030AD15CEA010201D1620705D530221B
:101D30008DF804204FF001087F1E582804D034A0ED
:101D400003900EA802900DE036A0F9E753466046D6
:101D5000009AFEF759FC84460398825C0298401E64
:101D6000029002705CEA0100F0D1029806A9081AFC
:101D700000F1200A600702D524F4803400E0012736
:101D8000574502DDA7EB0A0000E0002000EB0A0146
:101D9000009005984144401A0590E00306D45B4644
:101DA0002146179A059800F0B3F90544002706E08C
:101DB00001A85A46C05D179990476D1C7F1C474586
:101DC000F6DBE0030CD55B462146179A059800F038
:101DD0009FF9054404E030205A46179990476D1C3E
:101DE0000099481E00900029F5DC08E0029802994D
:101DF0005A460078491C0291179990476D1CBAF118
:101E00000001AAF1010AF1DC65E1000009280100E6
:101E10003031323334353637383961626364656660
:101E20000000000030313233343536373839414222
:101E3000434445460000000000F058F90544761C74
:101E4000307800287FF4ECAD19B02846BDE8F08F5B
:101E5000620700D4062709F1070222F0070CFCE80C
:101E60000223E14603F000485FEA080C02D00FF2BB
:101E7000702C0DE05FEA045C02D50FF2682C07E0DD
:101E80005FEAC47C02D00FF2602C01E0AFF2700C6C
:101E90004FF0FF3823F00043CDF850C065280CD038
:101EA00006DC452809D046281DD047283DD13DE015
:101EB000662818D067287ED138E00021112F01DB79
:101EC000112000E0781CCDE9000106A90EA8FFF75B
:101ED000EDFCDDE90F010E9A03910021009207F15C
:101EE000010A04914DE04FF000400097CDE9011048
:101EF00006A90EA8FFF7DAFCDDE90F0203920E9B9C
:101F000011990022DDF80CA00093049211B9791CFC
:101F100000EB010AB7EB0A0004D4C0F1FF3007F16F
:101F2000010A0490AAEB0700019044E0012F00DAB7
:101F300001270021112F01DD112000E03846CDE9F5
:101F4000000106A90EA8FFF7B1FCDDE90F010E9A0A
:101F50000391002104910092BA4621070CD4039901
:101F6000514500DA8A46BAF1010F05DD009AAAF15F
:101F70000101515C302908D0B84202DA10F1040F97
:101F800006DA0121CDE9011015E0AAF10101E9E726
:101F9000002805DC049901440491AAEB000102E049
:101FA000411C514500DD8A460499401A401C0190AD
:101FB0004FF000400290200704D40198504501DB07
:101FC000CDF8048000208DF84F0002980DF14F07E6
:101FD000B0F1004F25D02B200E9002984FF0020850
:101FE00000280CDA404202902D200E9007E00A21D2
:101FF0000298FEF7F3FA3031029007F8011DB8F1AC
:102000000001A8F10108F2DC02980028EFD1791E46
:102010000E980870307800F0200040F0450007F876
:10202000020D12A8C01B00F107081498007800B137
:10203000012000EB0A01019801EBE0710598414491
:10204000401A401E0590E00306D45B462146179ACD
:10205000059800F05DF805441498007818B15A46C8
:10206000179990476D1CE00324D55B462146179ACB
:10207000059800F04DF805441CE00498002807DBA3
:10208000DDE90301884203DD0098405C179901E017
:10209000179930205A469047049805F10105401CD5
:1020A00004900198401E019004D12E205A461799A1
:1020B00090476D1CBAF10001AAF1010ADDDC05E0D0
:1020C00017F8010B5A46179990476D1CB8F100019B
:1020D000A8F10108F4DC5B462146179A0598ABE6A7
:1020E0002D0000002B000000200000002DE9F04131
:1020F000044600251E461746880404D405E03946E8
:102100002020B0476D1C641EF9D52846BDE8F0813B
:102110002DE9F041044600251E469046C80301D52E
:10212000302700E02027880404D505E041463846E2
:10213000B0476D1C641EF9D52846BDE8F0810A68D9
:10214000531C0B601070704710B520210948FEF732
:1021500076FE4FF47A7000F0CDF820210548FEF7A6
:102160006CFE4FF47A7000F0C5F820210148FEF7AC
:1021700066FE10BD0008014008B501210420FEF7ED
:1021800091FF2020ADF8000010208DF803000320FF
:102190008DF8020069460448FEF7C4FD202102487C
:1021A000FEF74BFE08BD00000008014010B52021DD
:1021B0000948FEF744FE4FF47A7000F09BF82021A6
:1021C0000548FEF73AFE4FF47A7000F093F82021AC
:1021D0000148FEF734FE10BD0008014010B5202173
:1021E0000148FEF72AFE10BD0008014010B5084A5C
:1021F00051681068FEF7E8F904D880210548FEF719
:102200001CFE03E080210348FEF719FE10BD00000C
:102210001C0000200008014010B5044624210E488F
:10222000FDF787FF3C210D48FDF783FFC8210C48CF
:10223000FDF77FFF084804600A48084908610A481A
:1022400048600A4848610A4888614FF07E504863F8
:102250000848886310BD00001C00002040000020DA
:102260007C0000200000FA430000F0418096984A6C
:1022700000007A440000484370B5FEF789FB04462D
:10228000FEF77CF90B4948600A4611685068FEF772
:102290009BF902D200F096FB0AE0064A11685068EA
:1022A000FEF788F902D200F09DFB01E000F0AAFBE6
:1022B00070BD00001C00002010B504466FF0040043
:1022C000FEF7F0FFE11704EB5171C1F3C701074AB4
:1022D00011701046007800EB4001C1EBC0104FF6C2
:1022E000FF7101EAC0000249088010BD14000020FF
:1022F0001600002070B504464FF4077094FBF0F010
:10230000C6B24FF4077094FBF0F100FB114085B2A8
:1023100005E04FF4077000F02FF8701EC6B2002ED3
:10232000F7D115B1284600F027F870BD0146114AD3
:1023300012784A434FF0E0235A6100229A611A460C
:10234000126942F001021A6100BF4FF0E0221069E9
:1023500000F001021AB100F48032002AF5D04FF0EB
:10236000E022126922F001024FF0E0231A610022FC
:102370009A617047140000200146114A12884A43AE
:102380004FF0E0235A6100229A611A46126942F026
:1023900001021A6100BF4FF0E022106900F0010253
:1023A0001AB100F48032002AF5D04FF0E022126911
:1023B00022F001024FF0E0231A6100229A61704777
:1023C0001600002010B5FEF7E2FD4820FFF774FF6D
:1023D0004FF4E13000F006FC00F010F900F01EF8B8
:1023E000FEF71EFB00F044F900F08AFB00F0B0FBA2
:1023F000FFF7C2FE00F00AFB10BD70471CB50F20AE
:10240000009000208DF804000C208DF805000120BC
:102410008DF806006846FEF71BFC1CBD10B50121B7
:102420000520FEF73FFE00F003F8FFF7E7FF10BDC1
:1024300008B50F20ADF8000048208DF8030069466C
:102440000348FEF76FFC03210020FEF74BFC08BD9C
:10245000000801402DE9F04100240F490868FEF70B
:1024600062F807464FF066320C4BFDF7DCFF05467D
:10247000FEF784F80446084948682146FEF7A4F8A8
:1024800004D880210648FEF7DAFC03E080210448E6
:10249000FEF7D3FCBDE8F0811C0000206666EE3F2D
:1024A000000801402DE9F0473D4908693D49FDF725
:1024B000D5FE05463A49C869FEF727F882462946FF
:1024C000FEF778F801D2BDE8F087374A5168106806
:1024D000FDF78CFE344908610A4691691069FDF7E1
:1024E00085FE0646304881694FF08040FDF784FE46
:1024F00082462D4801695046FDF77BFE05462A4875
:10250000C1692846FDF720FE044625494868314642
:10251000FDF772FE0746224A51691069FDF79EFEDB
:1025200005461F4841682846FDF766FE1C4988603D
:102530001D4A11691A4A9068FDF75EFE8046184AE6
:1025400011699069FDF78AFE0546154841682846DD
:10255000FDF752FE1249C860C8682146FDF74CFEDF
:10256000814641463846FDF7EFFD05464946FDF7F1
:10257000EBFD0B49C8620A46D16A106BFDF7E4FD1A
:102580000749086300F0F2F8074880690649C86106
:1025900008460069886100200149C86100BF92E7D0
:1025A00040000020000048421C0000202DE9F047B8
:1025B0000F490868FDF7B7FF06464FF033320D4B61
:1025C000FDF731FF04460D4609494868FDF7ABFFAA
:1025D000804622462B46FDF7B9FF02D8FFF762FF7F
:1025E00003E080210448FEF728FCBDE8F0870000E6
:1025F0001C0000203333EB3F0008014008B50121E7
:102600000820FEF74FFD10208DF8030003208DF801
:1026100002004FF6E070ADF8000069460748FEF78B
:1026200081FB3820FEF710FC0C20FEF70DFC062085
:10263000FEF70AFC0120FEF707FC08BD000C014074
:1026400070B505460C46012D03D18020FEF7FCFB3A
:1026500004E0022D02D1C020FEF7F6FB03E014F8DF
:10266000010BFEF71FFC20780028F8D170BD000098
:1026700008B501210420FEF715FD4FF4A070ADF858
:10268000000010208DF8030003208DF80200694639
:102690000848FEF747FB40210648FEF7D0FB4FF401
:1026A00080710448FEF7CBFB80210248FEF7C5FB92
:1026B00008BD000000080140FFF784FE0348FFF753
:1026C000ABFD02E0022000F003F8FBE70000D04180
:1026D00010B50446FFF7D0FD34B1012C07D0022C11
:1026E00008D0032C0CD108E0FFF780FD0BE0FFF7CA
:1026F000B1FE08E000F0D0F805E0FFF757FF02E078
:10270000FFF77BFE00BF00BF10BD000010B51448EE
:102710000088401C1249088008460088FDF7FEFE2C
:1027200004461048816B2046FDF74EFF02D800207A
:102730000B4908800A480088FDF7F0FE0446094866
:10274000016B2046FDF736FF04D280210648FEF7D4
:1027500074FB03E080210448FEF771FB10BD00000C
:102760001A000020400000200008014010B50B496D
:10277000086B0021FDF71EFF04D20848406B074993
:10278000086309E0054A916B106BFDF71DFF03D24A
:102790000248806B0149086310BD00004000002022
:1027A00070B53A4908693A49FDF758FD0546374979
:1027B000C869FDF7AAFE04462946FDF7FBFE00D2D4
:1027C00070BD344A51681068FDF710FD3149086149
:1027D0002E4A51682F4A1069FDF70EFD2B490862F9
:1027E0002C4A11695069FDF7AFFC2A494861274A14
:1027F00051691069FDF732FD0546244841682846B5
:10280000FDF7FAFC0446214841682046FDF7F4FC38
:102810001E4988600A4691681E4A5069FDF7ECFC23
:102820001A4948621B4A91691069FDF7DFFC194992
:102830000862164A11699069FDF710FD04461348B5
:1028400041682046FDF7D8FC1049C8600A46D168A7
:10285000104A106AFDF7D0FC0C4988620A46516A9A
:10286000106AFDF771FC04460848816A2046FDF7AE
:102870006BFC06490863FFF779FF064800690549C4
:10288000886100200149C86100BF99E7400000202D
:10289000000048421C0000202DE9F0470F4908685D
:1028A000FDF741FE06464FF033320D4BFDF7BBFD01
:1028B00004460D4609494868FDF735FE8046224624
:1028C0002B46FDF743FE02D8FFF76AFF03E08021A5
:1028D0000448FEF7B2FABDE8F08700001C000020B3
:1028E0003333EB3F000801400548006818B9012068
:1028F0000349086002E000200149086070470000B9
:102900004000002010B50A48006840B908494868EE
:102910004FF07E51FDF718FC0549486007E0044977
:1029200048684FF07E51FDF761FC0149486010BDD9
:102930004000002010B50948006838B907494869C7
:102940000749FDF701FC0549486106E0034948696C
:102950000349FDF74BFC0149486110BD40000020D0
:102960000050434810B50948006838B907498869DC
:102970000749FDF7E9FB0549886106E003498869D5
:102980000349FDF733FC0149886110BD4000002078
:102990000000484210B5044634B1012C07D0022C87
:1029A00008D0032C0CD108E0FFF79EFF08E0FFF7EA
:1029B000A9FF05E0FFF7BEFF02E0FFF7D3FF00BF6E
:1029C00000BF10BD10B54FF480710548FEF735FA11
:1029D00040210348FEF733FAFFF7B6FB10BD0000B5
:1029E0000008014010B540210548FEF726FA4FF4D3
:1029F00080710348FEF723FAFFF7D8FB10BD0000F3
:102A00000008014010B5FFF7E9FB10BD08B5012132
:102A10000420FEF747FB8020ADF8000010208DF861
:102A2000030003208DF8020069460448FEF77AF996
:102A300080210248FEF703FA08BD000000080140AB
:102A40002DE9FF474FF0300A2048006810B94FF0D9
:102A50002B0A01E04FF02D0A1D490868FDF763FDC0
:102A600004460D461A494868FDF75DFD06463246A4
:102A70000B4618A11C488DE83004FEF7F3FE1349FD
:102A8000C868FDF750FD04460D4610498868FDF7FB
:102A90004AFD06460F460D494868FDF744FD80464D
:102AA00042460B4611A110486430CDE90067CDE9DC
:102AB0000245FEF7D7FE0C490120FFF7C1FD0A4988
:102AC00064310220FFF7BCFDBDE8FF874000002015
:102AD0001C000020543A25312E3266207C25312EF0
:102AE00031667C20256300007C000020503A2531AF
:102AF0002E31667C25312E32667C25312E326600E1
:102B00000EB501210846FEF7ADFA4FF08040FEF702
:102B100045FC4CF24F30ADF804004720ADF8000002
:102B20000020ADF80600ADF8020069464FF0804085
:102B3000FEF732FD01218807FEF720FC0122114635
:102B40009007FEF71FFD01218807FEF71AFC0EBD56
:102B50000EB501210220FEF785FA1048FEF71EFC93
:102B600040F2E730ADF804004720ADF80000002047
:102B7000ADF80600ADF8020069460848FEF70CFD06
:102B800001210648FEF7FAFB012211460348FEF731
:102B9000F9FC01210148FEF7F4FB0EBD00040040E2
:102BA00008B501210420FEF77DFA4FF40070ADF85E
:102BB000000018208DF8030003208DF802006946FC
:102BC0000748FEF7AFF84FF48060ADF8000004202E
:102BD0008DF8030069460248FEF7A4F808BD00001E
:102BE0000008014010B50446FFF7DAFF204600F068
:102BF00001F810BD1FB5044601218803FEF752FA03
:102C000000940020ADF80400ADF80600ADF808000F
:102C1000ADF80C000C20ADF80A0069460648FEF736
:102C2000ADFD012240F225510348FEF781FD01214F
:102C30000148FEF747FD1FBD003801405C2C00082D
:102C4000000000201C0000008C180008782C0008F0
:102C50001C000020F40500009C1800080000000083
:102C6000010203040102030406070809020406081E
:082C700000000000000000005C
:04000005080000ED02
:00000001FF
