:020000040800F2
:10000000E8040020010100083D0300086D0200081B
:100010003903000849010008CF070008000000006C
:10002000000000000000000000000000350400088F
:100030004D010008000000003F03000849050008CA
:100040001B0100081B0100081B0100081B01000820
:100050001B0100081B0100081B0100081B01000810
:100060001B0100081B0100081B0100081B01000800
:100070001B0100081B0100081B0100081B010008F0
:100080001B0100081B0100081B0100081B010008E0
:100090001B0100081B0100081B0100081B010008D0
:1000A0001B0100081B0100081B0100081B010008C0
:1000B0001B0100081B0100081B0100081B010008B0
:1000C0001B0100081B0100081B0100081B010008A0
:1000D0001B010008AD0500081B0100081B010008FA
:1000E0001B0100081B0100081B010008DFF80CD0F1
:1000F00000F018F800480047C9080008E80400208C
:100100000648804706480047FEE7FEE7FEE7FEE7B1
:10011000FEE7FEE7FEE7FEE7FEE7FEE74D05000827
:10012000ED000008064C074D06E0E06840F00103D2
:1001300094E8070098471034AC42F6D3FFF7DAFF93
:10014000B0090008D009000800BFFEE770472DE99C
:10015000F04102460025002600200023002400274D
:1001600091F803C00CF00F0591F803C00CF0100CCF
:10017000BCF1000F03D091F802C04CEA050591F8DC
:1001800000C0BCF1000F31D0146800202BE04FF00C
:10019000010C0CFA00F3B1F800C00CEA03069E4211
:1001A00020D183004FF00F0C0CFA03F7BC4305FA83
:1001B00003FC4CEA040491F803C0BCF1280F06D1FB
:1001C0004FF0010C0CFA00FCC2F814C00AE091F8E0
:1001D00003C0BCF1480F05D14FF0010C0CFA00FC34
:1001E000C2F810C0401C0828D1D31460B1F800C078
:1001F000BCF1FF0F34DD546800202EE000F1080C44
:100200004FF0010808FA0CF3B1F800C00CEA03063D
:100210009E4221D183004FF00F0C0CFA03F7BC4330
:1002200005FA03FC4CEA040491F803C0BCF1280F62
:1002300005D100F1080C08FA0CF8C2F8148091F806
:1002400003C0BCF1480F07D100F1080C4FF00108C2
:1002500008FA0CF8C2F81080401C0828CED354606D
:10026000BDE8F081416170470161704700BFFEE762
:1002700010B500F011F84FF4C87000F0D7FA38202C
:1002800000F020F80C2000F01DF8062000F01AF80D
:10029000012000F017F810BD08B50121082000F07A
:1002A0004FF810208DF8030003208DF802004FF660
:1002B000E070ADF8000069460148FFF748FF08BD4F
:1002C000000C014010B5044620210D48FFF7CAFF7D
:1002D00040210B48FFF7C6FF052000F0A7FA802158
:1002E0000748FFF7C1FF052000F0A0FA0548C460E9
:1002F000052000F09BFA80210148FFF7B3FF10BDF5
:10030000000C01400010014010B5044620210848AF
:10031000FFF7AAFF0748C46080210548FFF7A4FF44
:100320000A2000F083FA80210148FFF79BFF10BDEF
:10033000000C01400010014000BFFEE7704770470D
:1003400029B1064A92690243044B9A6104E0034AC8
:1003500092698243014B9A6170470000001002408D
:1003600030B500210022002400232D4D6D6805F0DA
:100370000C0121B1042905D0082923D105E0294D1C
:10038000056022E0274D05601FE0254D6D6805F4EE
:100390007012234D6D6805F48034022505EB9242FE
:1003A0001CB9214D554305600BE01D4D6D6805F4EA
:1003B00000351DB11C4D5543056002E0194D5543F4
:1003C000056002E0174D056000BF00BF144D6D6869
:1003D00005F0F0010909154D6B5C0568DD404560CD
:1003E0000F4D6D6805F4E061090A104D6B5C4568BE
:1003F000DD4085600A4D6D6805F46051C90A0B4DFA
:100400006B5C4568DD40C560054D6D6805F4404195
:10041000890B074D6B5CC568B5FBF3F5056130BD15
:100420000010024000127A0000093D000000002088
:1004300010000020704710B500F002F810BD000059
:100440000CB50020019000903348006840F48030E3
:100450003149086000BF3048006800F40030009067
:100460000198401C0190009818B90198B0F5A06F50
:10047000F1D12948006800F4003010B1012000904B
:1004800001E0002000900098012843D12348006833
:1004900040F01000214908600846006820F0030081
:1004A00008600846006840F0020008601A4840688A
:1004B000194948600846406848600846406840F46A
:1004C000806048600846406820F47C104860084618
:1004D000406840F4E81048600846006840F08070CA
:1004E000086000BF0C48006800F000700028F9D0D8
:1004F0000948406820F00300074948600846406802
:1005000040F00200486000BF0348406800F00C0063
:100510000828F9D10CBD0000001002400020024064
:10052000042808D14FF0E021096941F004014FF09F
:10053000E022116107E04FF0E021096921F0040198
:100540004FF0E022116170477047000010B513486A
:10055000006840F0010011490860084640681049F1
:1005600008400E494860084600680E4908400B499B
:1005700008600846006820F480200860084640684B
:1005800020F4FE0048604FF41F008860FFF753FF1F
:100590004FF000600449086010BD000000100240E8
:1005A0000000FFF8FFFFF6FE08ED00E010B540F296
:1005B00025511D4800F04AF810B31B4800F002F91D
:1005C000C4B21A48008800F40040C8B9174800882F
:1005D00000F4804060B10A2C03D000201349088049
:1005E00020E01248008840F400401049088019E0DB
:1005F0000D2C06D10D48008840F480400B4908803E
:1006000010E00A480088C0F30D0009490C5407485F
:100610000088401C0549088008460088C72801DD7D
:100620000020088010BD00000038014018000020A4
:100630001C00002021B1828942F40052828104E032
:1006400082894DF6FF731A408281704770B5024669
:10065000002400230025002040F66A16B14200D194
:1006600000BFC1F3421501F01F03012606FA03F390
:10067000012D02D19689334006E0022D02D1168A5F
:10068000334001E0968A33400C12012606FA04F446
:100690001688344013B10CB1012000E0002070BD79
:1006A000F0B50346002400260025002040F66A1716
:1006B000B94200D100BF1846C1F3421401F01F0631
:1006C000012707FA06F5012C01D10C3004E0022CB9
:1006D00001D1103000E014301AB107682F430760D1
:1006E00002E00768AF430760F0BD00002DE9F04766
:1006F00086B005460E460024A24600BFA14600274C
:10070000B08900B100BF2F462C8A4CF6FF70044020
:10071000F08804432C82AC894EF6F3100440B08874
:1007200031890843718908430443AC81AC8A4FF690
:10073000FF400440B0890443AC8201A8FFF710FEDB
:100740001F48874202D1DDF810A001E0DDF80CA0BF
:10075000A88900F4004040B10AEBCA0000EB0A107F
:1007600031684900B0FBF1F807E00AEBCA0000EB82
:100770000A1031688900B0FBF1F86420B8FBF0F092
:1007800004012009642101FB1089A88900F40040BC
:1007900040B1322000EBC900B0FBF1F000F00700DF
:1007A000044308E0322000EB09106421B0FBF1F0B3
:1007B00000F00F0004432C8106B0BDE8F087000074
:1007C0000038014001468888C0F30800704700BF28
:1007D000FEE702E008C8121F08C1002AFAD17047DC
:1007E0007047002001E001C1121F002AFBD17047B1
:1007F00010B504466FF00400FFF792FEE11704EB1A
:100800005171C1F3C701074A11701046007800EB1F
:100810004001C1EBC0104FF6FF7101EAC000024970
:10082000088010BD140000201600002070B504469A
:100830004FF4077094FBF0F0C6B24FF4077094FBCE
:10084000F0F100FB114085B205E04FF4077000F0B5
:1008500009F8701EC6B2002EF7D115B1284600F077
:1008600001F870BD0146114A12884A434FF0E02357
:100870005A6100229A611A46126942F001021A6115
:1008800000BF4FF0E022106900F001021AB100F43D
:100890008032002AF5D04FF0E022126922F00102E6
:1008A0004FF0E0231A6100229A6170471600002081
:1008B00010B54820FFF79CFF4FF4E13000F04CF8F2
:1008C000FFF7D6FC10BD0000FFF7F2FF03E00121A7
:1008D00001A000F005F8FAE768656C6C6F00000095
:1008E00070B504460D46012D03D18020FFF7EAFCC8
:1008F00002E0C020FFF7E6FC07E014F8010BFFF769
:1009000003FD4FF47A70FFF791FF20780028F4D1AF
:1009100070BD000008B501210420FFF711FD4FF460
:100920000070ADF8000018208DF8030003208DF84A
:10093000020069460748FFF70AFC4FF48060ADF8F3
:10094000000004208DF8030069460248FFF7FFFB12
:1009500008BD00000008014010B50446FFF7DAFFAB
:10096000204600F001F810BD1FB5044601218803A0
:10097000FFF7E6FC00940020ADF80400ADF8060097
:10098000ADF80800ADF80C000C20ADF80A0069467F
:100990000648FFF7ABFE012240F225510348FFF75E
:1009A0007FFE01210148FFF745FE1FBD00380140D1
:1009B000D0090008000000201C000000D207000839
:1009C000EC0900081C000020CC040000E20700082D
:1009D00000000000010203040102030406070809E5
:0C09E000020406080000000000000000F7
:04000005080000ED02
:00000001FF
